:020000040800F2
:10000000600600200D020008150200081702000813
:10001000190200081B0200081D0200080000000071
:100020000000000000000000000000001F020008A7
:100030002102000800000000230200082502000839
:1000400027020008270200082702000827020008EC
:1000500027020008270200082702000827020008DC
:1000600027020008270200082702000827020008CC
:1000700027020008270200082702000827020008BC
:1000800027020008270200082702000827020008AC
:10009000270200082702000827020008270200089C
:1000A000270200082702000827020008270200088C
:1000B000270200082702000827020008270200087C
:1000C000270200082702000827020008270200086C
:1000D000270200082702000827020008270200085C
:1000E000270200082702000827020008270200084C
:1000F000270200082702000827020008270200083C
:10010000270200082702000827020008270200082B
:10011000270200082702000827020008270200081B
:10012000270200082702000827020008270200080B
:1001300027020008270200082702000827020008FB
:1001400027020008270200082702000827020008EB
:1001500027020008270200082702000827020008DB
:1001600027020008270200082702000827020008CB
:1001700027020008270200082702000827020008BB
:10018000270200082702000800F002F800F02EF80D
:100190000AA090E8000C82448344AAF10107DA45E2
:1001A00001D100F023F8AFF2090EBAE80F0013F006
:1001B000010F18BFFB1A43F001031847B8070000EE
:1001C000C80700000023002400250026103A28BF9D
:1001D00078C1FBD8520728BF30C148BF0B607047B9
:1001E0001FB500F0C1FB1FBD10B510BD00F031F808
:1001F0001146FFF7F5FF00F035FB00F04FF803B4B0
:10020000FFF7F2FF03BC00F057F8000009488047F1
:1002100009480047FEE7FEE7FEE7FEE7FEE7FEE7E8
:10022000FEE7FEE7FEE7FEE704480549054A064B00
:1002300070470000C9040008890100086000002020
:1002400060060020600200206002002070477047B6
:100250007047754600F02CF8AE46050069465346D7
:1002600020F00700854618B020B5FFF7DDFFBDE898
:1002700020404FF000064FF000074FF000084FF00D
:10028000000B21F00701AC46ACE8C009ACE8C0099E
:10029000ACE8C009ACE8C0098D46704710B504460B
:1002A000AFF300802046BDE81040FFF7A8BF000074
:1002B000004870470000002001491820ABBEFEE74F
:1002C000260002007047F0B50A46002100230024F2
:1002D00000BF3DE0012505FA01F3156805EA0304B6
:1002E0009C4234D105684F000326BE40B5430560EB
:1002F00015794E00B5400668354305601579012D26
:1003000002D01579022D16D185684F000326BE4014
:10031000B543856055794E00B540866835438560A4
:10032000456801268E40B5434560456896798E4004
:10033000B6B235434560C5684F000326BE40B5439D
:10034000C560D5794E00B540C6683543C560491CC7
:100350001029BFD3F0BDF0B5002300244D07ED0EEA
:1003600002FA05F3CE1000F1200555F826504E078D
:10037000F70E0F26BE40B543CF1000F1200646F819
:100380002750CE1000F1200555F8265045EA030409
:10039000CE1000F1200545F82640F0BD29B1064AEF
:1003A00012680243044B1A6004E0034A1268824355
:1003B000014B1A60704700003038024029B1064AEC
:1003C00012680243044B1A6004E0034A1268824335
:1003D000014B1A6070470000403802400CB5002005
:1003E000019000903448006840F480303249086041
:1003F00000BF3148006800F4003000900198401CB4
:100400000190009818B90198B0F5A04FF1D12A4891
:10041000006800F4003010B10120009001E00020DD
:1004200000900098012846D123484030006840F0F1
:1004300080502149403108602048006840F4404025
:100440001E4908601C48083000681B4908310860D4
:100450000846006840F4004008600846006840F420
:10046000A05008601648091F0860081F006840F087
:100470008070091F086000BF0F48006800F000701E
:100480000028F9D040F205700E4908600A4808308B
:10049000006820F003000849083108600846006839
:1004A00040F00200086000BF03480830006800F018
:1004B0000C000828F8D10CBD003802400070004044
:1004C00008544007003C024010B51548006840F44D
:1004D0007000134908601348006840F0010011499A
:1004E000086000200F49083108600E4800680E4976
:1004F00008400C4908600D48091D0860081F006885
:1005000020F48020091F0860002006490C31086093
:10051000FFF764FF4FF0006001498039086010BDAB
:1005200088ED00E000380240FFFFF6FE10300024A6
:1005300021B1028842F00102028004E002884FF6F5
:10054000FE731A400280704770B500240022002319
:10055000058C4FF6FE7635400584028C8388048B2B
:100560004FF68F752C40B51E2C400D882C43751E00
:100570002A408D892A434D882A43104DA84202D033
:100580000F4DA84213D14FF6F7752A40CD892A4363
:100590004FF6FB752A408D882A434FF6FF652B40A6
:1005A0004FF6FF552B400D8A2B434D8A2B438380FA
:1005B00004838D684563028470BD00000000014023
:1005C000000401400A460021018B4FF6F7731940E1
:1005D000114301837047000070B5002400220023FE
:1005E000058C4FF6EF7635400584028C8388048BAA
:1005F00048F6FF752C404FF6FF452C400D884FF60E
:10060000FF7606EA05252C434FF6DF752A408D89D3
:1006100006EA05152A434D8806EA05152A43154DB5
:10062000A84202D0144DA8421DD14FF67F752A4032
:10063000CD894FF6FF7606EA05152A434FF6BF75BA
:100640002A408D8806EA05152A434FF6FF352B40D0
:100650004FF2FF752B400D8A06EA85052B434D8A24
:1006600006EA85052B43838004838D6885630284B5
:1006700070BD000000000140000401400A46002156
:10068000018B4FF2FF7319404FF6FF7303EA022309
:10069000194301837047000070B500240022002335
:1006A000058C4FF6FF6635400584028C8388848B69
:1006B0004FF68F752C404FF6FC752C400D882C435F
:1006C0004FF6FF552A408D894FF6FF7606EA05253D
:1006D0002A434D8806EA05252A43154DA84202D033
:1006E000144DA8421DD14FF2FF752A40CD894FF617
:1006F000FF7606EA05252A434FF6FF352A408D8806
:1007000006EA05252A434EF6FF752B404DF6FF7588
:100710002B400D8A06EA05152B434D8A06EA05157E
:100720002B43838084838D68C563028470BD000081
:1007300000000140000401400A460021818B4FF671
:10074000F7731940114381837047000070B5002290
:1007500000230024058C4EF6FF7635400584038C7B
:100760008488828B48F6FF752A404FF6FF452A4061
:100770000D884FF6FF7606EA05252A434DF6FF75EC
:100780002B408D8906EA05352B434D8806EA053551
:100790002B430A4DA84202D0094DA84208D14BF67E
:1007A000FF752C400D8A4FF6FF7606EA85152C431F
:1007B000848082838D680564038470BD00000140DD
:1007C000000401400A460021818B4FF2FF7319405B
:1007D0004FF6FF7303EA0223194381837047000039
:1007E00000220288184B98420ED0184B98420BD02A
:1007F000B0F1804F08D0164B984205D0154B984267
:1008000002D0154B984204D14FF68F731A404B8893
:100810001A43124B984207D0114B984204D04FF61E
:10082000FF431A400B891A4302804B68C3620B884E
:100830000385054B984202D0044B984201D18B7A34
:1008400003860123838270470000014000040140B9
:100850000004004000080040000C00400010004070
:10086000001400408AB001210820FFF797FD012104
:100870000420FFF7A3FD02220C213948FFF76BFD8E
:1008800002220D213648FFF766FD02220E21344870
:10089000FFF761FD02220F213148FFF75CFD4FF4A5
:1008A0007040089000208DF826008DF82700022067
:1008B0008DF8240003208DF8250008A92848FFF7AB
:1008C00002FD42F2CF00ADF814000020ADF8160092
:1008D00042F20F7006900020ADF81C008DF81E004B
:1008E00005A92048FFF77CFF01211E48FFF720FEE5
:1008F0006020ADF800000120ADF802000020ADF846
:100900000C002BE040F6C310029069461548FFF733
:100910001BFE08211348FFF755FE41F28730029075
:1009200069461048FFF758FE08210E48FFF7A6FE5B
:1009300041F64B50029069460A48FFF7ADFE082188
:100940000848FFF7F9FE42F20F7002906946054829
:10095000FFF7FCFE08210348FFF734FFD2E7000051
:10096000000C0240000800404FF04070E1EE100A19
:1009700070470000840900080000002060060000A5
:04098000C4010008A6
:040000050800020DE0
:00000001FF
